:100080003F065B4F666D7D077F6F777C395E7971C8
:01009000006F
:0B009D00EF1FAC0670011E4C70F62235
:10000300E4FBFAEA7053EBB40800504D900016F885
:1000130028287302002E02003202003A02003E0238
:10002300004602004A020052020056D2A28002C2D7
:10003300A2D2A3D2A48022D2A28002C2A2C2A3D2FD
:10004300A48016D2A28002C2A2D2A3C2A4800AD2E2
:10005300A28002C2A2C2A3C2A474802BF582740040
:100063003AF583E493F5807F647E0012009DE4F506
:0C007300800BBB00010AEB64084A708798
:01007F00225E
:030000000200916A
:0C009100787FE4F6D8FD758107020003BB
:00000001FF
